:020000040800F2
:10000000C00400209D0100083B110008F30E000809
:1000100039110008E5020008131300080000000071
:100020000000000000000000000000003F11000878
:10003000E7020008000000003D110008411100081F
:10004000B7010008B7010008B7010008B7010008B0
:10005000B7010008B7010008B7010008B7010008A0
:10006000B7010008B7010008B7010008B701000890
:10007000B7010008B7010008B7010008B701000880
:10008000B7010008B7010008B7010008B701000870
:10009000B7010008B7010008B7010008B701000860
:1000A000B7010008B7010008B7010008B701000850
:1000B000B7010008B7010008B7010008B701000840
:1000C000B7010008B7010008B7010008B701000830
:1000D000B7010008B7010008B7010008B701000820
:1000E000B7010008B7010008B7010008B701000810
:1000F000B7010008B7010008B7010008B701000800
:10010000B7010008B7010008B7010008B7010008EF
:10011000B7010008B7010008B7010008B7010008DF
:10012000B7010008B7010008B7010008B7010008CF
:10013000B7010008B7010008B7010008B7010008BF
:10014000B7010008B7010008B7010008B7010008AF
:10015000B7010008B7010008B7010008B70100089F
:10016000B7010008B7010008B7010008B70100088F
:10017000B7010008B7010008B7010008000000003F
:10018000B7010008B7010008DFF80CD000F098F8BC
:100190000048004795150008C00400200648804725
:1001A00006480047FEE7FEE7FEE7FEE7FEE7FEE75C
:1001B000FEE7FEE7FEE7FEE7C5110008890100083B
:1001C0002DE9F05F0546002092469B46884606468C
:1001D000814640241BE0284641464746224600F01F
:1001E0005EF853465A46C01A914110D3114618463C
:1001F000224600F045F82D1A67EB01084F462246CB
:100200000120002100F03CF817EB00094E41201EB0
:10021000A4F10104DFDC484631462A464346BDE8E6
:10022000F09FD2B201E000F8012B491EFBD27047CB
:100230000022F6E710B513460A4604461946FFF7B2
:10024000F0FF204610BD421C10F8011B0029FBD115
:10025000801A704730B50B46014600202022012449
:1002600009E021FA02F59D4205D303FA02F5491B84
:1002700004FA02F52844151EA2F10102F1DC30BD9A
:10028000202A04DB203A00FA02F100207047914056
:10029000C2F1200320FA03F3194390407047202A4B
:1002A00004DB203A21FA02F00021704721FA02F320
:1002B000D040C2F120029140084319467047000027
:1002C000064C074D06E0E06840F0010394E80700A3
:1002D00098471034AC42F6D3FFF75AFF581600087F
:1002E00078160008FEE7704770B5044600F0F6F88F
:1002F0000546601C02D004480078044400F0EEF883
:10030000401BA042FAD370BD1C0000202DE9F84F1D
:1003100000224FF0010803254FF00F0E0B6808FA7A
:1003200002F42340A3426ED14E68012E05D0022E66
:1003300003D0112E01D0122E12D186684FEA420C42
:1003400005FA0CF7BE43CF6807FA0CF7374387600E
:100350004668A6430C79C4F30014944034434460C7
:10036000C668570005FA07FC8C6826EA0C06BC40F4
:100370003443C4604C68022C01D0122C13D1D40831
:1003800000EB8404A346D4F8209054074FEAD46AC3
:100390000EFA0AF629EA06090E6906FA0AF646EA8C
:1003A0000906CBF8206006680C7926EA0C0604F0F2
:1003B0000304BC40344304604C68E40065D5364C0B
:1003C000266846F480462660246822F0030604F47A
:1003D00080440094314C3444A446D4F8084896072D
:1003E000370F0EFA07F6B4432D4EB04201D1002666
:1003F00024E02C4EB04201D101261FE02A4EB0422B
:1004000002D102261AE040E0284EB04201D1032674
:1004100014E0274EB04201D104260FE0254EB04231
:1004200001D105260AE0244EB04201D1062605E09E
:10043000224EB04201D1072600E00826BE402643E6
:10044000CCF808681E4E34684F689C43FF0300D503
:100450001C4334601A4C241D26684F689E43BF031A
:1004600000D51E432660164E083634684F689C43FC
:10047000FF0200D51C433460114E0C3634684F68BF
:100480009C43BF0200D51C433460521C102AFFF469
:1004900045AFBDE8F88F000044380240003001400D
:1004A000000002400004024000080240000C02402C
:1004B000001002400014024000180240001C0240DC
:1004C000003C0140426931EA020200D10904816125
:1004D00070470AB1816170470904FBE701488068F1
:1004E000704700001C00002070B5040025D094F86F
:1004F0003D00002520B984F83C50204600F0B8F8B3
:10050000242084F83D002068016821F00101016089
:100510002068016841F4004101602068016821F40D
:100520000041016000F0FEF94D4A6168914201D836
:100530004C4900E04C49884201D2012070BD4B4932
:100540002368B0FBF1F15E6826F03F060E435E6063
:100550006368934206D94FF4967359434FF47A7304
:10056000B1FBF3F12368491C1E6A26F03F063143B4
:1005700019626168914210D84900401EB0FBF1F247
:10058000521CC2F30B02042A01D2042022E0B0FB69
:10059000F1F0401CC0F30B001CE0A268F2B301EBC9
:1005A000C10303EB0116431EB3FBF6F35B1C43F4DC
:1005B00080431B0549D092B301EBC10202EB01114C
:1005C000401EB0FBF1F0401CC0F30B0040F4804033
:1005D00040F400402168CA694CF6FF739A43104307
:1005E000C861D4E9071001432068026822F0C00204
:1005F00011430160D4E9030101432068826848F295
:10060000FF339A4311438160D4E90501084321680F
:10061000CA6822F0FF021043C86001E00EE016E055
:100620002068016841F0010101602564202084F800
:100630003D00256384F83E50002070BD01EB41066B
:10064000431EB3FBF6F35B1CB3E70120C2E701EBEB
:100650004101401EB0FBF1F0401CC0F30B00B7E7B6
:10066000A086010080841E0000093D0040420F006A
:1006700010B586B0044614216846FFF7D9FD13492A
:100680002068884220D11248016841F002010160CF
:100690000068694600F002000590C020009012201A
:1006A0000190012002900320039004200490094847
:1006B000FFF72CFE06481030016841F4001101607C
:1006C000006800F40010059006B010BD0054004012
:1006D0003038024000040240024881680278114428
:1006E000816070471C0000200B4810B5016841F480
:1006F00000710160016841F480610160016841F4AA
:1007000080710160032000F061F8002000F006F81D
:1007100000F024F8002010BD003C024070B50D4DE3
:1007200004464FF47A712878B1FBF0F00A49096861
:10073000B1FBF0F000F0E6FA48B9102C07D2002225
:100740002146501E00F022F800206C6070BD012090
:1007500070BD00001C000020180000200A4808B5E9
:10076000016841F480410160006800F4804000901D
:100770000548001F016841F080510160006800F0E9
:100780008050009008BD000044380240F0B40E4B89
:100790001B680C46C3F30223C3F10705042D00D9DF
:1007A0000425191D072901D2002300E0DB1E0126C4
:1007B00006FA05F1491E214099409E40761E1640DA
:1007C0003143F0BC00F0BABD0CED00E0064900F08A
:1007D000070208684FF6FF03184040EA0220034A68
:1007E00010430860704700000CED00E00000FA05BF
:1007F0002DE9F0470E46050065D0DFF81481D8F8E2
:100800000000F7B200F00F00B04207D288F8007085
:10081000D8F8000000F00F00B04254D128683D4CD9
:10082000810712D5400703D5206840F4E0502060CE
:100830002878000703D5206840F4604020602068D5
:10084000A96820F0F000084320602878C0072DD068
:10085000304968680839012812D0022813D00328CB
:1008600011D00968890700292DDA216821F00301D8
:1008700001432160FFF732FE814641F2883A0EE0E3
:1008800009688903EFE709688901ECE7FFF726FEAD
:10089000A0EB0901514502D90320BDE8F08720688B
:1008A000696800F00C00B0EB810FEFD1D8F80010B0
:1008B000404601F00F01B14207D90770006800F00F
:1008C0000F00B04201D00120E7E72878400705D5A6
:1008D0002068E96820F4E050084320602878000789
:1008E00006D52068296920F4604040EAC1002060F4
:1008F00000F028F82168084AC1F30311515CC84090
:100900000649086006480068FFF708FF0020C4E7B2
:10091000003C024008380240401600081800002041
:10092000200000200448054900680968044AC1F312
:100930008221515CC84070471800002008380240EE
:1009400050160008154810B5006810F00C02144845
:1009500013D01449042A0FD0082A0ED10F4C241F9B
:100960002268236802F03F025B0207D52068C0F3CB
:100970008810A0FB010106E0084610BD2168C1F304
:100980008811A1FB00010023FFF71AFC2168C1F3C5
:100990000141491C4900B0FBF1F010BD083802408C
:1009A0000024F40040787D012DE9F84F040076D052
:1009B0002078DFF838A3CE4DC00749D0DAF8001010
:1009C0005046C1F38101012908D00068C0F38100BD
:1009D00002280AD1281D0068400206D52868800335
:1009E00036D560680028E2D032E06068B0F5803F1C
:1009F00010D0B0F5A02F286810D020F480302860E7
:100A0000286820F4802028606068A0B1FFF766FDA8
:100A100006460CE0286840F48030F4E740F480207B
:100A20002860F7E7FFF75AFD801B642873D8286811
:100A30008003F7D50CE0FFF751FD064605E000BF47
:100A4000FFF74CFD801B6428F0D828688003F7D49A
:100A50002078DFF8A08280074FF000093ED5DAF851
:100A60000010504611F00C0F09D00068C0F381004F
:100A700002280BD19D48001F0068400206D4286858
:100A8000800715D5E068012809D111E0E068B8B108
:100A90000120C8F80000FFF721FD064605E020E12F
:100AA000FFF71CFD801B0228C0D828688007F7D5F7
:100AB0002868216920F0F80040EAC10028600DE0B4
:100AC000C8F80090FFF70AFD064604E0FFF706FDB0
:100AD000801B02281FD828688007F7D420780007D9
:100AE00022D5824E844861696C3671B10121016062
:100AF000FFF7F4FC074604E0FFF7F0FCC01B0228F8
:100B000009D830688007F7D50EE0C0F80090FFF7ED
:100B1000E5FC074605E082E0FFF7E0FCC01B022889
:100B20007DD830688007F7D42078400768D5DFF893
:100B3000BCB100270BF1380BDBF80000C0000BD470
:100B4000DBF8001041F08051CBF80010DBF800001A
:100B5000012700F080500090684E3068C00510D426
:100B6000306840F480703060FFF7B8FC009005E01A
:100B7000FFF7B4FC0099401A022850D83068C0052D
:100B8000F6D55A4EA068683601280FD0052830687F
:100B900010D020F001003060306820F00400306098
:100BA000A068B8B1FFF79AFC00900FE0306840F001
:100BB0000100F4E740F004003060F7E7FFF78EFC37
:100BC0000099411A41F28830814266D83068800726
:100BD000F4D50EE0FFF782FC009007E0FFF77EFC03
:100BE0000099411A41F28830814256D83068800716
:100BF000F4D42FB1DBF8001021F08051CBF80010B5
:100C0000A069D0B3DAF800205146C2F38102022A6B
:100C10004AD00228484607D0C8F8600000E03CE00F
:100C2000FFF75CFC04463BE04746C8F86000FFF76E
:100C300055FC064605E000BFFFF750FC801B02286C
:100C40002BD828688001F7D4D4E907010843A16AAA
:100C50002B4A490802EB0141626A41EA82110843CA
:100C600094F82C1040EA01612048001F0160012027
:100C70003866FFF733FC044605E034E0FFF72EFC4E
:100C8000001B022809D828688001F7D52BE000BF97
:100C9000FFF724FC001B022802D90320BDE8F88FCF
:100CA00028688001F4D41EE00128F7D00868E269C2
:100CB00000F48001914214D1226A00F03F01914278
:100CC0000FD147F6C071626A0140914209D1A26A10
:100CD00000F44031914204D1E16A00F07060884232
:100CE00001D00120DAE70020D8E7000008380240F0
:100CF0000038024000004742800E4742007000402A
:100D00000000FFFF10B5401EB0F1807F01D301202D
:100D100010BD4FF0E02460610F21601700F00EFB62
:100D20000020A06107202061002010BD70B590F860
:100D30003C20012A32D0012480F83C40022280F875
:100D40003D2003685A689D6822F070060A683243A5
:100D50005A60134B02689A4214D0B2F1804F11D0FE
:100D6000104B9A420ED0104B9A420BD00F4B9A4226
:100D700008D00F4B9A4205D00E4B9A4202D00E4B30
:100D80009A4204D1496825F080031943916080F8A4
:100D90003D40002180F83C10084670BD022070BD27
:100DA000000001400004004000080040000C00402A
:100DB00000040140004001400018004010B504004C
:100DC00003D094F83D0010B107E0012010BD0020D1
:100DD00084F83C00204600F00DF8022084F83D0025
:100DE000211D206800F0FCF9012084F83D0000205E
:100DF00010BD000008B500680649884208D10648C1
:100E0000016841F004010160006800F004000090F6
:100E100008BD0000000800404038024070B504469C
:100E200090F83C00012817D0012584F83C5002209E
:100E300084F83D002068826822F0770222F47F4225
:100E400082600868502830D00DDC20284DD005DCA9
:100E500098B310283BD148E0022070BD302844D020
:100E6000402834D139E0602828D0702806D0B0F569
:100E7000805F2CD0B0F5005F29D10AE0CB68D1E9C2
:100E80000121206800F010FA2068816841F07701A4
:100E900009E0CB68D1E90121206800F005FA20685B
:100EA000816841F48041816011E0CA684968206826
:100EB00000F00CFA5021206807E016E0CA68496883
:100EC000206800F014FA6021206800F0F7F984F837
:100ED0003D50002084F83C0070BDCA684968206815
:100EE00000F0F4F940212068EFE72268014610463F
:100EF000EBE7FEE710B500F017F8332000F020FB19
:100F0000322000F01DFB282000F01AFB012000F029
:100F100017FB0C2000F014FBBDE81040062000F089
:100F20000FBB012000F00CBB2DE9F04786B0142167
:100F30006846FFF77DF935480024016841F001015A
:100F40000160016801F001010591016841F00201B1
:100F50000160016801F002010591016841F004019E
:100F6000016000684FF4804800F00400CDF8008074
:100F70000226059001250396DFF894A0CDE90154DF
:100F800069465046FFF7C2F94FF40049CDF800908A
:100F90000396CDE9015469465046FFF7B7F96F0350
:100FA00000970396CDE9015469465046FFF7AEF924
:100FB000002239465046FFF78CFA2803CDE9000598
:100FC000DFF850A0CDE9024669465046FFF79EF98A
:100FD00000970396CDE9015469465046FFF796F90C
:100FE000CDF800800396CDE9015469465046FFF7DD
:100FF0008DF9CDF800900396CDE90154694650462D
:10100000FFF784F906B0BDE8F087000030380240F1
:10101000000802400004024031B14030C0B240F04C
:10102000800000BF00F08CBA40F08000FAE70000BA
:101030000EB5024603A1684600F06CF9684600F060
:1010400003F80EBD2564000070B50546002404E0D9
:10105000285D00F08BFA641CE4B22846FFF7F3F831
:10106000A042F5D870BD000070B586B01421684666
:10107000FFF7DEF819480024016841F080010160A3
:10108000016801F080010591016841F008010160EB
:10109000016801F008010591016841F0010101605A
:1010A000016801F001010591016841F00201016050
:1010B0000068012200F00200094ED5030590294680
:1010C0003046FFF706FA01200095CDE90104694694
:1010D00030460394FFF71AF906B070BD303802406D
:1010E000000C024010B586B0002412480094019410
:1010F0000294039404940E49059401604821C0E9C8
:10110000011440F2E731C0E903148461FFF756FE91
:101110004FF48050009069460648FFF77FFE049424
:1011200004A904480594FFF701FE06B010BD0000B5
:10113000000800407C000020FEE7704770477047C1
:10114000FFF7CABA30B593B030216846FFF770F8A0
:1011500014210CA8FFF76CF818480025016841F02D
:1011600080510160006800F08050119014480168BF
:1011700041F4804101600068022400F48040119035
:1011800001200090000401908001CDE90640192063
:1011900008909020CDE9090404200B906846FFF7E1
:1011A00003FC0CA90F2081E83100E002CDE90F0516
:1011B00002210CA8FFF71CFB13B030BD40380240E1
:1011C000007000400548016841F470010160034966
:1011D0004FF00060803908607047000088ED00E043
:1011E000F0B50268254C264D264E274F274B4FF071
:1011F000804CA04209D0604507D0A84205D0B0423B
:1012000003D0B84201D0984204D122F0700E4A684F
:1012100042EA0E02A0421BD0604519D0A84217D066
:10122000B04215D0B84213D0984211D0184DA84200
:101230000ED0184DA8420BD0174DA84208D0174D1C
:10124000A84205D0164DA84202D0164DA84203D19F
:1012500022F44075CA682A434D6922F080022A436D
:1012600002608A68C2620A688262A04201D0984223
:1012700001D10969016301214161F0BD0000014014
:101280000004004000080040000C00400004014041
:101290000040014000440140004801400018004067
:1012A000001C00400020004010B5846842EA032280
:1012B00024F47F440A432243826010BD826822F0F6
:1012C00070020A4342F007018160704710B5036A5B
:1012D000046A24F001040462846924F0F00444EAFE
:1012E000021423F00A020A438461026210BD10B5A1
:1012F000036A23F0100303628369046A23F47043D2
:1013000043EA023224F0A00343EA01118261016240
:1013100010BDFEE70FB4084B10B504A902AA03984C
:1013200000F02CF8044602A9002000F0D1F8204675
:1013300010BC5DF814FB0000D11400080907090E69
:10134000002804DB00F1E02080F80014704700F072
:101350000F0000F1E02080F8141D704702E008C87B
:10136000121F08C1002AFAD170477047002001E01F
:1013700001C1121F002AFBD1704700002DE9FF4F69
:1013800089B09B460446002506E025280BD05A4626
:101390000B999047641C6D1C20780028F5D10DB086
:1013A0002846BDE8F08F0027B8460122474900E0F3
:1013B000074314F8013F203B02FA03F00842F7D13B
:1013C00020782E2819D114F8010F47F004072A2895
:1013D0000ED06FF02F022078A0F1300109290CD82F
:1013E00008EB880102EB410100EB0108641CF2E705
:1013F0000A98641C50F8048B0A9020780028CED0FC
:10140000642808D0692806D075281ED05A460B9942
:1014100090476D1C58E00A994FF00A0901C90A91DA
:10142000002802DA40422D2102E0390504D52B21A3
:101430008DF82010012103E0F90704D02021F7E7FF
:101440008A4608AE0DE00021FAE70A994FF00A0932
:1014500001C90A91F7E74946FEF7FCFE303106F86C
:10146000011D0028F7D1ADEB060000F12009780737
:1014700001D44FF00108C84502DDA8EB090000E0E7
:1014800000208046002706E008A85A46C05D0B9958
:1014900090476D1C7F1C5745F6DB04E030205A4610
:1014A0000B9990476D1CB8F10001A8F10108F5DC1B
:1014B00005E016F8010B5A460B9990476D1CB9F1DF
:1014C0000001A9F10109F4DC641C65E709280100A9
:1014D0000A68531C0B601070704700002DE9F04142
:1014E000154D0F468046002405F108060EE000BFAA
:1014F00028FA04F0C00735F8141056F8240018D064
:101500005FF00102FEF7E5FF641CE4B2BC42EFD3DA
:1015100001220A4DD40321462846FEF7DAFF0120B6
:10152000FEF7E2FE21462846BDE8F0410022FEF724
:10153000D0BF0022E6E700000000002000080240C3
:1015400010B5044600224FF480410748FEF7C1FF62
:1015500020090421FFF7C2FF04F00F00BDE810408E
:101560000421FFF7BBBF00000008024010B504468D
:10157000012291030648FEF7ACFF20090421FFF782
:10158000ADFF04F00F00BDE810400421FFF7A6BF37
:1015900000080240FFF7A8F8FFF7ACFCFFF7D2FD08
:1015A000FFF762FD1D481C494FF4804201601C4951
:1015B000416000218160C0E9031241618161C16124
:1015C0000162FEF791FFFFF78DFDFFF7AAFC0121F5
:1015D0000320FFF721FD13A0FFF736FD4FF47A70CB
:1015E000FEF782FE114C124E4FF4004501210320FC
:1015F000FFF712FD0FA0FFF727FD00210320FFF7E3
:101600000BFD2046FFF714FD29463046FEF75AFF32
:10161000C820FEF769FEE9E70054004028000020DA
:10162000A086010048756E67204F4B00F8F5FFFF5C
:10163000000C0240544553545F4C434400000000EA
:101640000000000000000000010203040607080972
:1016500000000000010203047816000800000020CA
:10166000280000005C130008A016000828000020D5
:10167000980400006C130008001000200040008057
:101680000004024000040240000402400004024042
:101690000024F40001000000100000000000000021
:040000050800018965
:00000001FF
